{"@anon-aadhaar/contracts/src/AnonAadhaar.sol":{"AnonAadhaar":{"abi":[{"inputs":[{"internalType":"address","name":"_verifier","type":"address"},{"internalType":"uint256","name":"_pubkeyHash","type":"uint256"}],"stateMutability":"nonpayable","type":"constructor"},{"inputs":[],"name":"storedPublicKeyHash","outputs":[{"internalType":"uint256","name":"","type":"uint256"}],"stateMutability":"view","type":"function"},{"inputs":[],"name":"verifier","outputs":[{"internalType":"address","name":"","type":"address"}],"stateMutability":"view","type":"function"},{"inputs":[{"internalType":"uint256","name":"nullifierSeed","type":"uint256"},{"internalType":"uint256","name":"nullifier","type":"uint256"},{"internalType":"uint256","name":"timestamp","type":"uint256"},{"internalType":"uint256","name":"signal","type":"uint256"},{"internalType":"uint256[4]","name":"revealArray","type":"uint256[4]"},{"internalType":"uint256[8]","name":"groth16Proof","type":"uint256[8]"}],"name":"verifyAnonAadhaarProof","outputs":[{"internalType":"bool","name":"","type":"bool"}],"stateMutability":"view","type":"function"}],"evm":{"bytecode":{"linkReferences":{},"object":"60a060405234801561001057600080fd5b5060405161052338038061052383398101604081905261002f91610058565b600080546001600160a01b0319166001600160a01b039390931692909217909155608052610092565b6000806040838503121561006b57600080fd5b82516001600160a01b038116811461008257600080fd5b6020939093015192949293505050565b6080516104706100b360003960008181609e015261017001526104706000f3fe608060405234801561001057600080fd5b50600436106100415760003560e01c80632b7ac3f31461004657806350de0e57146100765780639c895b0a14610099575b600080fd5b600054610059906001600160a01b031681565b6040516001600160a01b0390911681526020015b60405180910390f35b6100896100843660046102c1565b6100ce565b604051901515815260200161006d565b6100c07f000000000000000000000000000000000000000000000000000000000000000081565b60405190815260200161006d565b6000806100da8561028a565b6000546040805180820182528635815260208088013581830152825160808082018552898501358286019081526060808c013590840152825284518086018652908a0135815260a08a01358184015281830152835180850190945260c089013584529495506001600160a01b039093169363c542c93b9391929091810188600760200201358152506040518061012001604052807f000000000000000000000000000000000000000000000000000000000000000081526020018d81526020018c81526020018a6000600481106101b3576101b361032b565b602002013581526020018a6001600481106101d0576101d061032b565b602002013581526020018a6002600481106101ed576101ed61032b565b602002013581526020018a60036004811061020a5761020a61032b565b602002013581526020018e8152602001878152506040518563ffffffff1660e01b815260040161023d949392919061036a565b602060405180830381865afa15801561025a573d6000803e3d6000fd5b505050506040513d601f19601f8201168201806040525081019061027e9190610411565b98975050505050505050565b60006003826040516020016102a191815260200190565b60408051601f198184030181529190528051602090910120901c92915050565b60008060008060008061020080888a0312156102dc57600080fd5b8735965060208801359550604088013594506060880135935061010088018981111561030757600080fd5b60808901935089828a01111561031c57600080fd5b80925050509295509295509295565b634e487b7160e01b600052603260045260246000fd5b8060005b6002811015610364578151845260209384019390910190600101610345565b50505050565b61022081016103798287610341565b60408083018660005b600280821061039157506103cc565b82518460005b838110156103b5578251825260209283019290910190600101610397565b505050928401925060209190910190600101610382565b505050506103dd60c0830185610341565b61010082018360005b60098110156104055781518352602092830192909101906001016103e6565b50505095945050505050565b60006020828403121561042357600080fd5b8151801515811461043357600080fd5b939250505056fea264697066735822122082ade3b5c1efc9196d438d1e4e2220acbeb907a317e14e826516f28a0df54e5b64736f6c63430008130033","opcodes":"PUSH1 0xA0 PUSH1 0x40 MSTORE CALLVALUE DUP1 ISZERO PUSH2 0x10 JUMPI PUSH1 0x0 DUP1 REVERT JUMPDEST POP PUSH1 0x40 MLOAD PUSH2 0x523 CODESIZE SUB DUP1 PUSH2 0x523 DUP4 CODECOPY DUP2 ADD PUSH1 0x40 DUP2 SWAP1 MSTORE PUSH2 0x2F SWAP2 PUSH2 0x58 JUMP JUMPDEST PUSH1 0x0 DUP1 SLOAD PUSH1 0x1 PUSH1 0x1 PUSH1 0xA0 SHL SUB NOT AND PUSH1 0x1 PUSH1 0x1 PUSH1 0xA0 SHL SUB SWAP4 SWAP1 SWAP4 AND SWAP3 SWAP1 SWAP3 OR SWAP1 SWAP2 SSTORE PUSH1 0x80 MSTORE PUSH2 0x92 JUMP JUMPDEST PUSH1 0x0 DUP1 PUSH1 0x40 DUP4 DUP6 SUB SLT ISZERO PUSH2 0x6B JUMPI PUSH1 0x0 DUP1 REVERT JUMPDEST DUP3 MLOAD PUSH1 0x1 PUSH1 0x1 PUSH1 0xA0 SHL SUB DUP2 AND DUP2 EQ PUSH2 0x82 JUMPI PUSH1 0x0 DUP1 REVERT JUMPDEST PUSH1 0x20 SWAP4 SWAP1 SWAP4 ADD MLOAD SWAP3 SWAP5 SWAP3 SWAP4 POP POP POP JUMP JUMPDEST PUSH1 0x80 MLOAD PUSH2 0x470 PUSH2 0xB3 PUSH1 0x0 CODECOPY PUSH1 0x0 DUP2 DUP2 PUSH1 0x9E ADD MSTORE PUSH2 0x170 ADD MSTORE PUSH2 0x470 PUSH1 0x0 RETURN INVALID PUSH1 0x80 PUSH1 0x40 MSTORE CALLVALUE DUP1 ISZERO PUSH2 0x10 JUMPI PUSH1 0x0 DUP1 REVERT JUMPDEST POP PUSH1 0x4 CALLDATASIZE LT PUSH2 0x41 JUMPI PUSH1 0x0 CALLDATALOAD PUSH1 0xE0 SHR DUP1 PUSH4 0x2B7AC3F3 EQ PUSH2 0x46 JUMPI DUP1 PUSH4 0x50DE0E57 EQ PUSH2 0x76 JUMPI DUP1 PUSH4 0x9C895B0A EQ PUSH2 0x99 JUMPI JUMPDEST PUSH1 0x0 DUP1 REVERT JUMPDEST PUSH1 0x0 SLOAD PUSH2 0x59 SWAP1 PUSH1 0x1 PUSH1 0x1 PUSH1 0xA0 SHL SUB AND DUP2 JUMP JUMPDEST PUSH1 0x40 MLOAD PUSH1 0x1 PUSH1 0x1 PUSH1 0xA0 SHL SUB SWAP1 SWAP2 AND DUP2 MSTORE PUSH1 0x20 ADD JUMPDEST PUSH1 0x40 MLOAD DUP1 SWAP2 SUB SWAP1 RETURN JUMPDEST PUSH2 0x89 PUSH2 0x84 CALLDATASIZE PUSH1 0x4 PUSH2 0x2C1 JUMP JUMPDEST PUSH2 0xCE JUMP JUMPDEST PUSH1 0x40 MLOAD SWAP1 ISZERO ISZERO DUP2 MSTORE PUSH1 0x20 ADD PUSH2 0x6D JUMP JUMPDEST PUSH2 0xC0 PUSH32 0x0 DUP2 JUMP JUMPDEST PUSH1 0x40 MLOAD SWAP1 DUP2 MSTORE PUSH1 0x20 ADD PUSH2 0x6D JUMP JUMPDEST PUSH1 0x0 DUP1 PUSH2 0xDA DUP6 PUSH2 0x28A JUMP JUMPDEST PUSH1 0x0 SLOAD PUSH1 0x40 DUP1 MLOAD DUP1 DUP3 ADD DUP3 MSTORE DUP7 CALLDATALOAD DUP2 MSTORE PUSH1 0x20 DUP1 DUP9 ADD CALLDATALOAD DUP2 DUP4 ADD MSTORE DUP3 MLOAD PUSH1 0x80 DUP1 DUP3 ADD DUP6 MSTORE DUP10 DUP6 ADD CALLDATALOAD DUP3 DUP7 ADD SWAP1 DUP2 MSTORE PUSH1 0x60 DUP1 DUP13 ADD CALLDATALOAD SWAP1 DUP5 ADD MSTORE DUP3 MSTORE DUP5 MLOAD DUP1 DUP7 ADD DUP7 MSTORE SWAP1 DUP11 ADD CALLDATALOAD DUP2 MSTORE PUSH1 0xA0 DUP11 ADD CALLDATALOAD DUP2 DUP5 ADD MSTORE DUP2 DUP4 ADD MSTORE DUP4 MLOAD DUP1 DUP6 ADD SWAP1 SWAP5 MSTORE PUSH1 0xC0 DUP10 ADD CALLDATALOAD DUP5 MSTORE SWAP5 SWAP6 POP PUSH1 0x1 PUSH1 0x1 PUSH1 0xA0 SHL SUB SWAP1 SWAP4 AND SWAP4 PUSH4 0xC542C93B SWAP4 SWAP2 SWAP3 SWAP1 SWAP2 DUP2 ADD DUP9 PUSH1 0x7 PUSH1 0x20 MUL ADD CALLDATALOAD DUP2 MSTORE POP PUSH1 0x40 MLOAD DUP1 PUSH2 0x120 ADD PUSH1 0x40 MSTORE DUP1 PUSH32 0x0 DUP2 MSTORE PUSH1 0x20 ADD DUP14 DUP2 MSTORE PUSH1 0x20 ADD DUP13 DUP2 MSTORE PUSH1 0x20 ADD DUP11 PUSH1 0x0 PUSH1 0x4 DUP2 LT PUSH2 0x1B3 JUMPI PUSH2 0x1B3 PUSH2 0x32B JUMP JUMPDEST PUSH1 0x20 MUL ADD CALLDATALOAD DUP2 MSTORE PUSH1 0x20 ADD DUP11 PUSH1 0x1 PUSH1 0x4 DUP2 LT PUSH2 0x1D0 JUMPI PUSH2 0x1D0 PUSH2 0x32B JUMP JUMPDEST PUSH1 0x20 MUL ADD CALLDATALOAD DUP2 MSTORE PUSH1 0x20 ADD DUP11 PUSH1 0x2 PUSH1 0x4 DUP2 LT PUSH2 0x1ED JUMPI PUSH2 0x1ED PUSH2 0x32B JUMP JUMPDEST PUSH1 0x20 MUL ADD CALLDATALOAD DUP2 MSTORE PUSH1 0x20 ADD DUP11 PUSH1 0x3 PUSH1 0x4 DUP2 LT PUSH2 0x20A JUMPI PUSH2 0x20A PUSH2 0x32B JUMP JUMPDEST PUSH1 0x20 MUL ADD CALLDATALOAD DUP2 MSTORE PUSH1 0x20 ADD DUP15 DUP2 MSTORE PUSH1 0x20 ADD DUP8 DUP2 MSTORE POP PUSH1 0x40 MLOAD DUP6 PUSH4 0xFFFFFFFF AND PUSH1 0xE0 SHL DUP2 MSTORE PUSH1 0x4 ADD PUSH2 0x23D SWAP5 SWAP4 SWAP3 SWAP2 SWAP1 PUSH2 0x36A JUMP JUMPDEST PUSH1 0x20 PUSH1 0x40 MLOAD DUP1 DUP4 SUB DUP2 DUP7 GAS STATICCALL ISZERO DUP1 ISZERO PUSH2 0x25A JUMPI RETURNDATASIZE PUSH1 0x0 DUP1 RETURNDATACOPY RETURNDATASIZE PUSH1 0x0 REVERT JUMPDEST POP POP POP POP PUSH1 0x40 MLOAD RETURNDATASIZE PUSH1 0x1F NOT PUSH1 0x1F DUP3 ADD AND DUP3 ADD DUP1 PUSH1 0x40 MSTORE POP DUP2 ADD SWAP1 PUSH2 0x27E SWAP2 SWAP1 PUSH2 0x411 JUMP JUMPDEST SWAP9 SWAP8 POP POP POP POP POP POP POP POP JUMP JUMPDEST PUSH1 0x0 PUSH1 0x3 DUP3 PUSH1 0x40 MLOAD PUSH1 0x20 ADD PUSH2 0x2A1 SWAP2 DUP2 MSTORE PUSH1 0x20 ADD SWAP1 JUMP JUMPDEST PUSH1 0x40 DUP1 MLOAD PUSH1 0x1F NOT DUP2 DUP5 SUB ADD DUP2 MSTORE SWAP2 SWAP1 MSTORE DUP1 MLOAD PUSH1 0x20 SWAP1 SWAP2 ADD KECCAK256 SWAP1 SHR SWAP3 SWAP2 POP POP JUMP JUMPDEST PUSH1 0x0 DUP1 PUSH1 0x0 DUP1 PUSH1 0x0 DUP1 PUSH2 0x200 DUP1 DUP9 DUP11 SUB SLT ISZERO PUSH2 0x2DC JUMPI PUSH1 0x0 DUP1 REVERT JUMPDEST DUP8 CALLDATALOAD SWAP7 POP PUSH1 0x20 DUP9 ADD CALLDATALOAD SWAP6 POP PUSH1 0x40 DUP9 ADD CALLDATALOAD SWAP5 POP PUSH1 0x60 DUP9 ADD CALLDATALOAD SWAP4 POP PUSH2 0x100 DUP9 ADD DUP10 DUP2 GT ISZERO PUSH2 0x307 JUMPI PUSH1 0x0 DUP1 REVERT JUMPDEST PUSH1 0x80 DUP10 ADD SWAP4 POP DUP10 DUP3 DUP11 ADD GT ISZERO PUSH2 0x31C JUMPI PUSH1 0x0 DUP1 REVERT JUMPDEST DUP1 SWAP3 POP POP POP SWAP3 SWAP6 POP SWAP3 SWAP6 POP SWAP3 SWAP6 JUMP JUMPDEST PUSH4 0x4E487B71 PUSH1 0xE0 SHL PUSH1 0x0 MSTORE PUSH1 0x32 PUSH1 0x4 MSTORE PUSH1 0x24 PUSH1 0x0 REVERT JUMPDEST DUP1 PUSH1 0x0 JUMPDEST PUSH1 0x2 DUP2 LT ISZERO PUSH2 0x364 JUMPI DUP2 MLOAD DUP5 MSTORE PUSH1 0x20 SWAP4 DUP5 ADD SWAP4 SWAP1 SWAP2 ADD SWAP1 PUSH1 0x1 ADD PUSH2 0x345 JUMP JUMPDEST POP POP POP POP JUMP JUMPDEST PUSH2 0x220 DUP2 ADD PUSH2 0x379 DUP3 DUP8 PUSH2 0x341 JUMP JUMPDEST PUSH1 0x40 DUP1 DUP4 ADD DUP7 PUSH1 0x0 JUMPDEST PUSH1 0x2 DUP1 DUP3 LT PUSH2 0x391 JUMPI POP PUSH2 0x3CC JUMP JUMPDEST DUP3 MLOAD DUP5 PUSH1 0x0 JUMPDEST DUP4 DUP2 LT ISZERO PUSH2 0x3B5 JUMPI DUP3 MLOAD DUP3 MSTORE PUSH1 0x20 SWAP3 DUP4 ADD SWAP3 SWAP1 SWAP2 ADD SWAP1 PUSH1 0x1 ADD PUSH2 0x397 JUMP JUMPDEST POP POP POP SWAP3 DUP5 ADD SWAP3 POP PUSH1 0x20 SWAP2 SWAP1 SWAP2 ADD SWAP1 PUSH1 0x1 ADD PUSH2 0x382 JUMP JUMPDEST POP POP POP POP PUSH2 0x3DD PUSH1 0xC0 DUP4 ADD DUP6 PUSH2 0x341 JUMP JUMPDEST PUSH2 0x100 DUP3 ADD DUP4 PUSH1 0x0 JUMPDEST PUSH1 0x9 DUP2 LT ISZERO PUSH2 0x405 JUMPI DUP2 MLOAD DUP4 MSTORE PUSH1 0x20 SWAP3 DUP4 ADD SWAP3 SWAP1 SWAP2 ADD SWAP1 PUSH1 0x1 ADD PUSH2 0x3E6 JUMP JUMPDEST POP POP POP SWAP6 SWAP5 POP POP POP POP POP JUMP JUMPDEST PUSH1 0x0 PUSH1 0x20 DUP3 DUP5 SUB SLT ISZERO PUSH2 0x423 JUMPI PUSH1 0x0 DUP1 REVERT JUMPDEST DUP2 MLOAD DUP1 ISZERO ISZERO DUP2 EQ PUSH2 0x433 JUMPI PUSH1 0x0 DUP1 REVERT JUMPDEST SWAP4 SWAP3 POP POP POP JUMP INVALID LOG2 PUSH5 0x6970667358 0x22 SLT KECCAK256 DUP3 0xAD 0xE3 0xB5 0xC1 0xEF 0xC9 NOT PUSH14 0x438D1E4E2220ACBEB907A317E14E DUP3 PUSH6 0x16F28A0DF54E JUMPDEST PUSH5 0x736F6C6343 STOP ADDMOD SGT STOP CALLER "},"methodIdentifiers":{"storedPublicKeyHash()":"9c895b0a","verifier()":"2b7ac3f3","verifyAnonAadhaarProof(uint256,uint256,uint256,uint256,uint256[4],uint256[8])":"50de0e57"}}}}}